:020000040000FA
:02000000FE2FD1
:100F06008130831203139F00831603139F019F17DB
:100F16000800FF30831603138500860187018327A7
:100F26000030B8277108FB007008FA007A088312AF
:100F3600031387007B08F8007A08F7007808F700A3
:100F4600F8017708FA007808FB007A088600023074
:100F5600F9000430F800BA30F700F70BB02FF80BA1
:100F6600B02FF90BB02F0000932FF4000830740255
:100F7600031CC02FF001F1010800C530F200720811
:100F8600831203139F057408F20002300310F20D5A
:100F9600FF3E031DC92F0310720DF30073089F0453
:100FA6000630F3003030F200F20BD72FF30BD72FB9
:100FB6000000831203139F149F18DF2F1E081E08BC
:100FC600F200F3017208F300F2017208F5007308EB
:100FD600F600831603131E087507F2007608031839
:100FE600760AF3007208F5007308F6007608F10039
:0A0FF6007508F000080083018C2F3D
:04400E00F2ECFFFFD2
:00000001FF
